:100000000C94E1000C9409010C9409010C94090171
:100010000C9409010C9409010C9409010C94090138
:100020000C9409010C9409010C9453040C94BC0425
:100030000C9409010C9409010C9409010C94090118
:100040000C9409010C9409010C9409010C94090108
:100050000C9409010C9409010C9409010C94FE06FE
:100060000C9409010C9409010C9409010C940901E8
:100070000C9409010C9409010C9409010C940901D8
:100080000C9409010C9409010C9409010C940901C8
:100090000C9409010C9409010C9409010C940901B8
:1000A0000C9409010C9409010C940901CC02CF02B3
:1000B000BE02C202C802F002F002F002D302D7026E
:1000C000DB02E102E502F002EB0200000000240086
:1000D00027002A002D003000000000002500280025
:1000E0002B002E0031000000000023002600290014
:1000F0002C002F000404040404030405020202027D
:1001000004030202020206060606060604040202B0
:100110000204040408020110408040102040804086
:10012000800802040180402010020110801020404D
:1001300040200000000200090F0000030401000C31
:1001400000000000000000000000000000000000AF
:1001500000080B0002020201000904000001020273
:1001600000000524001001052401010104240206F9
:100170000524060001070581031000400904010061
:10018000020A000000070502024000000705830282
:100190004000000403090412010002EF0201409A2A
:1001A000230C8000010102030141646166727569DC
:1001B00074004665617468657220333275340000DE
:1001C000480711241FBECFEFDAE0DEBFCDBF11E03C
:1001D000A0E0B1E0E4EBF0E102C005900D92A432A2
:1001E000B107D9F721E0A4E2B1E001C01D92A33923
:1001F000B207E1F710E0C1EED0E004C02197FE01A4
:100200000E944D08C03ED107C9F70E945D070C94BB
:1002100058080C940000FC0180919201811103C0E8
:100220008FEF9FEF08959FB7F89482E08093E900E5
:100230002091F20030E01216130614F421E030E0B1
:100240002115310551F084E6809391018091F100F0
:1002500080838091F200882319F09FBFC90108951F
:100260008BE68093E800F9CFCF92DF92EF92FF9276
:100270000F931F93CF93DF936C017A018B01C0E042
:10028000D0E0CE15DF0589F0D8016D918D01D60142
:10029000ED91FC910190F081E02DC6010995892B2B
:1002A00011F47E0102C02196ECCFC701DF91CF91FE
:1002B0001F910F91FF90EF90DF90CF900895809164
:1002C000890181110DC082E08093850184E08093D3
:1002D0008601109288011092870181E08093890144
:1002E00085E891E00895CF93DF931F92CDB7DEB7F5
:1002F0006983DC01ED91FC910280F381E02D41E006
:1003000050E0BE016F5F7F4F09950F90DF91CF9155
:10031000089583E08093E9008091F200882319F02A
:100320008AE38093E8000895CF93DF931F92CDB7BF
:10033000DEB7FC018485958597FD05C02FEF3FEF63
:10034000358724870BC0CE0101960E940B010197CF
:1003500019F4898190E002C08FEF9FEF0F90DF9139
:10036000CF9108950F931F93CF93DF931F92CDB733
:10037000DEB78C01FC018485958597FF0EC0CE0108
:1003800001960E940B01019719F4298130E002C007
:100390002FEF3FEFF80135872487F8018485958595
:1003A0000F90DF91CF911F910F910895FC018485EB
:1003B000958597FD0BC09FB7F89482E08093E90084
:1003C0008091F2009FBF90E0019608959FB7F89446
:1003D00082E08093E9008091F2009FBF90E0089551
:1003E00040912F015091300120912D0130912E012B
:1003F00042175307B4F49091E8009570E1F390919F
:10040000E80092FD19C08093F10080912F01909136
:10041000300101968F739927892B19F48EEF809301
:10042000E80080912F019091300101969093300166
:1004300080932F0181E0089580E00895CF92DF92AC
:10044000EF92FF920F931F93CF93DF931F92CDB73D
:10045000DEB7182F062FE42E862F880F8E5F998324
:100460000E94F00183E00E94F001F12EC12E9981DB
:10047000D92E8C2D8F19801798F4F601E7FE02C053
:10048000849101C080810E94F001182F80E00E94B9
:10049000F0018123FFEFCF1ADF0A8111EACF01C0FB
:1004A00081E00F90DF91CF911F910F91FF90EF901E
:1004B000DF90CF900895DF92EF92FF920F931F93FA
:1004C000CF93DF93D82E8A017B01E40EF51EEB015A
:1004D000CE15DF0571F0D7FE03C0FE01849101C087
:1004E00088810E94F00121968111F2CF8FEF9FEF5A
:1004F00001C0C801DF91CF911F910F91FF90EF9044
:10050000DF9008950F931F93CF93DF931F92CDB782
:10051000DEB782E0898342E450E061E571E080E883
:100520000E945B020E945F01DC0112960D911C91FA
:1005300013970115110569F0D801ED91FC91028026
:10054000F381E02DBE016F5F7F4FC801099597FFD2
:1005500007C089810F90DF91CF911F910F9108956E
:10056000F80100851185E5CF90E0FC013197EF306F
:10057000F105B0F5EA5AFF4F0C944D0880918000C8
:100580008F7703C0809180008F7D809380000895D5
:1005900080918000877FF9CF84B58F7702C084B5C2
:1005A0008F7D84BD0895809190008F7707C08091E2
:1005B00090008F7D03C080919000877F8093900092
:1005C00008958091C0008F7703C08091C0008F7D17
:1005D0008093C00008958091C200877F8093C200FD
:1005E00008951F93CF93DF93282F30E0F901EE5C3D
:1005F000FE4F8491F901ED5EFE4FD491F901EC506C
:10060000FF4FC491CC23C9F0162F81110E94B40270
:10061000EC2FF0E0EE0FFF1FE852FF4FA591B491D1
:100620008FB7F894111105C09C91ED2FE095E92347
:1006300002C0EC91ED2BEC938FBFDF91CF911F9116
:100640000895CF93DF9390E0FC01ED5EFE4F24917F
:10065000FC01EC50FF4F8491882361F190E0880FFA
:10066000991FFC01E653FF4FC591D491FC01E8525C
:10067000FF4FA591B491611109C09FB7F89488818B
:10068000209582238883EC912E230BC0623061F485
:100690009FB7F8943881822F809583238883EC91CB
:1006A0002E2B2C939FBF06C08FB7F894E8812E2B7A
:1006B00028838FBFDF91CF9108953FB7F894809141
:1006C000290190912A01A0912B01B0912C0126B50E
:1006D000A89B05C02F3F19F00196A11DB11D3FBF7A
:1006E000BA2FA92F982F8827820F911DA11DB11D08
:1006F000BC01CD0143E0660F771F881F991F4A9503
:10070000D1F708958F929F92AF92BF92CF92DF92CE
:10071000EF92FF926B017C010E945D034B015C0133
:10072000C114D104E104F104F1F00E945D03DC0185
:10073000CB0188199909AA09BB09883E9340A105F4
:10074000B10570F321E0C21AD108E108F10888EE82
:10075000880E83E0981EA11CB11CC114D104E104D1
:10076000F10419F7DDCFFF90EF90DF90CF90BF90AD
:10077000AF909F908F9008957F928F929F92AF92AB
:10078000BF92CF92DF92EF92FF920F931F93CF937E
:10079000DF936C015B017A0180910B01882309F4DE
:1007A00069C080919201882309F464C0809134016A
:1007B00080FF05C08091E00082608093E000E70147
:1007C00010E00AEF83E0982E90E4792E2AE3822E3F
:1007D000209709F447C08FB7F8949092E900909160
:1007E000E80095FF06C09091F200272D291B922F5B
:1007F00001C090E08FBF911109C00150D9F161E0B3
:1008000070E080E090E00E948203E2CF292F30E088
:10081000C217D3070CF49C2F8FB7F8949092E9007D
:100820002091E80025FF1CC0292F30E0C21BD30B0C
:10083000F501915020F041914093F100FACFA20EC2
:10084000B31E112319F08092E80009C09091E800CE
:1008500095FD06C08092E80011E0209709F010E0B5
:100860008FBFB6CF1111B7CF84E6809333011E142A
:100870001F0444F081E090E0F6019383828380E0DE
:1008800090E001C0C701DF91CF911F910F91FF90C0
:10089000EF90DF90CF90BF90AF909F908F907F9020
:1008A00008950E9453081F920F920FB60F921124C1
:1008B0008F939F938091E1009091E100937F9093BB
:1008C000E10083FF0FC01092E90091E09093EB00EC
:1008D0001092EC0092E39093ED001092920198E058
:1008E0009093F00082FF1CC093E09093E9009091F8
:1008F000F200992319F09AE39093E8009091330164
:10090000992329F090913301915090933301909164
:100910009101992329F09091910191509093910127
:1009200084FF10C08091E2008E7E81608093E2009F
:100930008091E1008F7E8093E100809134018E7E72
:10094000806111C080FF11C08091E2008E7E8061C5
:100950008093E2008091E1008E7E8093E10080919F
:1009600034018E7E8160809334019F918F910F902E
:100970000FBE0F901F9018951F920F920FB60F92F7
:100980001124CF92DF92EF92FF920F931F932F9338
:100990003F934F935F936F937F938F939F93AF9307
:1009A000BF93EF93FF93CF93DF93CDB7DEB76C97F1
:1009B000DEBFCDBF1092E9008091E80083FFFFC148
:1009C000FE017596DE2ECF2E88E08E0F8E1729F051
:1009D0009091F10090833196F9CF84E68093910154
:1009E00082EF8093E8008D8987FF05C09091E80031
:1009F00090FFFCCF03C09EEF9093E800982F907675
:100A000009F0C5C09E892F89188D91110CC08038BE
:100A100029F4809132018093F10002C01092F1001C
:100A20001092F1004FC1422F50E0512B913051F400
:100A3000811148C14130510509F044C18091320112
:100A40008D7F0BC0933061F481113CC14130510561
:100A500009F038C18091320182608093320132C145
:100A6000953041F48091E80080FFFCCF206820930E
:100A7000E30028C1963009F05EC0EB8CFC8C10922C
:100A8000E9001092300110922F01123091F510926E
:100A90002E0110922D010E94820299E0BE016F5F2B
:100AA0007F4FDB01E92F1D92EA95E9F799831A83BD
:100AB00091E09E8390EA98879AEF998720912F0181
:100AC00030913001275F3F4F3C832B838D83109201
:100AD000E9001092300110922F01F0922E01E09265
:100AE0002D0149E050E080E00E945B020E948202FA
:100AF000E9C0F0922E01E0922D010E945F01DC011D
:100B00001296ED90FC901397E114F10409F4C7C01C
:100B1000D701ED91FC910480F581E02D6D2D7C2DA8
:100B2000C7010995009719F00CF0CCC0CFC0F701B0
:100B3000E084F184E9CF973009F4C8C0983021F4FB
:100B400081E08093F100BEC0993009F0BBC0837092
:100B500009F0BCC0EDE0F1E081E021E036E39081F6
:100B6000992361F08093E9002093EB009191909399
:100B7000EC003093ED008F5F873089F78EE780932C
:100B8000EA001092EA008F89809392019BC08B8DBE
:100B90009C8D1092E9001092300110922F019093D9
:100BA0002E0180932D01898D81115FC08E899D89D1
:100BB000913A59F4813209F089C047E050E064E08D
:100BC00071E080E00E945B027DC0913209F07EC03E
:100BD000833289F4888D90E0982F88272F89822B83
:100BE000A0E0B0E08093000190930101A093020186
:100BF000B093030167C08032B1F48091E80082FFB6
:100C0000FCCFE4E0F1E087E08E0F8E1729F09091A1
:100C1000F10090833196F9CF84E6809391018BEFB8
:100C20008093E80006C0823209F04CC08F8980931F
:100C30000B0180913101882319F0EEEFFAE002C038
:100C4000E0E0F8E08091040190910501A091060197
:100C5000B0910701803B9440A105B10509F07AC02D
:100C600080910B0180FF92C075C00E945F01DC0182
:100C700012960D911C9113970115110539F1D801A8
:100C8000ED91FC910190F081E02D6D2D7C2DC8013E
:100C90000995811117C0F80100851185EDCF11303C
:100CA00009F44EC0133091F48F89882309F445C0AC
:100CB000823081F440E86CE082EB91E00E941E02F9
:100CC000882321F08EEF8093E80079C081E2809341
:100CD000EB0075C0813029F440E868E089EA91E0D2
:100CE000EDCF833099F70E945F01DC011296ED9001
:100CF000FC9013978E010F5F1F4F6801E114F10400
:100D000079F0D701ED91FC910680F781E02DB801D3
:100D1000C7010995080F111DF701E084F184EECF9A
:100D2000D8011C92F60101900020E9F73197BF012C
:100D30006C197D0940E0C601C1CF63E971E002C0D2
:100D400067E971E06115710509F2FB01449150E01A
:100D500080E838CF0FB6F894A8958091600088613C
:100D600080936000109260000FBEA895EE3F2AE0CD
:100D7000F20739F08091FE0A9091FF0A91838083F7
:100D8000A1CF1092FF0A1092FE0A9CCFEE3F8AE09C
:100D9000F80731F0808191819093FF0A8093FE0AD9
:100DA00087E797E7918380839BE088E10FB6F8940B
:100DB000A895809360000FBE9093600083CF6C96DF
:100DC0000FB6F894DEBF0FBECDBFDF91CF91FF917C
:100DD000EF91BF91AF919F918F917F916F915F91B3
:100DE0004F913F912F911F910F91FF90EF90DF90C6
:100DF000CF900F900FBE0F901F9018951F920F92DB
:100E00000FB60F9211242F933F938F939F93AF931D
:100E1000BF938091250190912601A0912701B09167
:100E200028013091240126E0230F2D3720F402966B
:100E3000A11DB11D05C029E8230F0396A11DB11DF9
:100E4000209324018093250190932601A0932701EC
:100E5000B09328018091290190912A01A0912B0142
:100E6000B0912C010196A11DB11D80932901909391
:100E70002A01A0932B01B0932C01BF91AF919F91B8
:100E80008F913F912F910F900FBE0F901F9018954B
:100E9000E5E3F1E01382128288EE93E0A0E0B0E097
:100EA00084839583A683B78387E191E091838083D0
:100EB0008FEF9FEF958784870895789484B582603B
:100EC00084BD84B5816084BD85B5826085BD85B5EE
:100ED000816085BD80916E00816080936E0010926C
:100EE00081008091810082608093810080918100E7
:100EF0008160809381008091800081608093800078
:100F00008091910082608093910080919100816036
:100F100080939100809190008160809390008091F7
:100F2000C10084608093C1008091C1008260809381
:100F3000C1008091C10081608093C1008091C30095
:100F400081608093C3008091C00082608093C00064
:100F50008091C20081608093C20080917A00846099
:100F600080937A0080917A00826080937A008091E9
:100F70007A008E7F80937A0080917A0080688093D7
:100F80007A001092920110923201109234018091F5
:100F9000D70081608093D70080EA8093D80089B51C
:100FA0008F7E89BD89B5826089BD09B400FEFDCF01
:100FB00061E070E080E090E00E9482038091D800C0
:100FC0008F7C80618093D8008091E000807F809347
:100FD000E0008091E1008E7E8093E1008DE08093BF
:100FE000E200EEEFFFE7859194918B3F9C4D19F461
:100FF00081E08093310161E085E00E94210361E09E
:1010000086E00E94210360E083E00E942103C5E3A3
:10101000D1E006E111E037EFE32E30E0F32E40E0BF
:10102000C42E40E0D42EFE018491F801A490F70173
:10103000B490BB2079F081110E94B4028B2D90E016
:10104000880F991F8A519F4FFC01A591B4918C91F3
:10105000A82231F4C114D10431F30E940000E3CF7F
:1010600061E085E00E94F10261E086E00E94F10209
:1010700064EF71E080E090E00E94820360E085E030
:101080000E94F10260E086E00E94F10264EF71E0EC
:1010900080E090E00E948203DDCFEE0FFF1F0590FD
:1010A000F491E02D099481E090E0F8940C945808B4
:0410B000F894FFCFE2
:1010B400FFFFFFFF00E100000000000000C180818D
:1010C400000000000000007301BC03D6019401B2CB
:0410D400018901008D
:00000001FF
