:100000000C94E1000C9409010C9409010C94090171
:100010000C9409010C9409010C9409010C94090138
:100020000C9409010C9409010C945A040C94C30417
:100030000C9409010C9409010C9409010C94090118
:100040000C9409010C9409010C9409010C94090108
:100050000C9409010C9409010C9409010C940507F6
:100060000C9409010C9409010C9409010C940901E8
:100070000C9409010C9409010C9409010C940901D8
:100080000C9409010C9409010C9409010C940901C8
:100090000C9409010C9409010C9409010C940901B8
:1000A0000C9409010C9409010C940901E502E80281
:1000B000D702DB02E102090309030903EC02F002A3
:1000C000F402FA02FE020903040300000000240007
:1000D00027002A002D003000000000002500280025
:1000E0002B002E003100080B00020202010009045F
:1000F0000000010202000005240010010524010196
:1001000001042402060524060001070581031000EE
:100110004009040100020A00000007050202400035
:1001200000070583024000000403090412010002D5
:10013000EF0201409A230C80000101020301416497
:100140006166727569740046656174686572203312
:1001500032753400000000002300260029002C0026
:100160002F00040404040403040502020202040331
:100170000202020206060606060604040202020441
:100180000404080201104080401020408040800894
:100190000204018040201002011080102040402005
:1001A0000000000200090F0000030401000C000021
:1001B000000000000000000000000000000000003F
:1001C0005F0811241FBECFEFDAE0DEBFCDBF11E024
:1001D000A0E0B1E0E2E0F1E102C005900D92A632AC
:1001E000B107D9F721E0A6E2B1E001C01D92A5391F
:1001F000B207E1F710E0C1EED0E004C02197FE01A4
:100200000E947408C03ED107C9F70E944F070C94A2
:100210007F080C940000FC0180919401811103C0BF
:100220008FEF9FEF08959FB7F89482E08093E900E5
:100230002091F20030E01216130614F421E030E0B1
:100240002115310551F084E6809393018091F100EE
:1002500080838091F200882319F09FBFC90108951F
:100260008BE68093E800F9CF2FB7F89483E0809372
:10027000E9009091E800892F807295FF04C0909169
:10028000F20080E4891B2FBF089580918B018111BA
:100290000DC082E08093870184E0809388011092F2
:1002A0008A011092890181E080938B0187E891E0B7
:1002B0000895409131015091320120912F013091E8
:1002C000300142175307B4F49091E8009570E1F3C0
:1002D0009091E80092FD19C08093F1008091310166
:1002E0009091320101968F739927892B19F48EEF23
:1002F0008093E800809131019091320101969093B2
:1003000032018093310181E0089580E00895CF9219
:10031000DF92EF92FF920F931F93CF93DF931F9281
:10032000CDB7DEB7182F062FE42E862F880F8E5FED
:1003300099830E94590183E00E945901F12EC12E38
:100340009981D92E8C2D8F19801798F4F601E7FE2C
:1003500002C0849101C080810E945901182F80E061
:100360000E9459018123FFEFCF1ADF0A8111EACFE2
:1003700001C081E00F90DF91CF911F910F91FF900D
:10038000EF90DF90CF900895DF92EF92FF920F935E
:100390001F93CF93DF93D82E8A017B01E40EF51EC5
:1003A000EB01CE15DF0571F0D7FE03C0FE0184918D
:1003B00001C088810E94590121968111F2CF8FEFEF
:1003C0009FEF01C0C801DF91CF911F910F91FF9066
:1003D000EF90DF9008950F931F93CF93DF931F92B9
:1003E000CDB7DEB782E0898342E450E066EE70E08C
:1003F00080E80E94C4010E944501DC0112960D9123
:100400001C9113970115110569F0D801ED91FC912C
:100410000280F381E02DBE016F5F7F4FC801099517
:1004200097FF07C089810F90DF91CF911F910F91A6
:100430000895F80100851185E5CFCF92DF92EF9204
:10044000FF920F931F93CF93DF936C017A018B017F
:10045000C0E0D0E0CE15DF0589F0D8016D918D01A7
:10046000D601ED91FC910190F081E02DC601099536
:10047000892B11F47E0102C02196ECCFC701DF91D8
:10048000CF911F910F91FF90EF90DF90CF90089543
:10049000CF93DF931F92CDB7DEB76983DC01ED9177
:1004A000FC910280F381E02D41E050E0BE016F5FDE
:1004B0007F4F09950F90DF91CF91089583E080934E
:1004C000E9008091F200882319F08AE38093E80024
:1004D00008950E94340190E00895CF93DF931F9216
:1004E000CDB7DEB7FC018485958597FD05C02FEF5C
:1004F0003FEF358724870BC0CE0101960E940B0188
:10050000019719F4898190E002C08FEF9FEF0F905F
:10051000DF91CF9108950F931F93CF93DF931F9295
:10052000CDB7DEB78C01FC018485958597FF0EC0A1
:10053000CE0101960E940B01019719F4298130E048
:1005400002C02FEF3FEFF80135872487F80184853B
:1005500095850F90DF91CF911F910F910895FC0128
:100560008485958597FD0BC09FB7F89482E08093B2
:10057000E9008091F2009FBF90E0019608959FB737
:10058000F89482E08093E9008091F2009FBF90E0B0
:100590000895089580E090E0089590E0FC0131977F
:1005A000EF30F105B0F5EA5AFF4F0C9474088091D2
:1005B00080008F7703C0809180008F7D80938000C2
:1005C000089580918000877FF9CF84B58F7702C02E
:1005D00084B58F7D84BD0895809190008F7707C08A
:1005E000809190008F7D03C080919000877F8093E1
:1005F000900008958091C0008F7703C08091C00063
:100600008F7D8093C00008958091C200877F809382
:10061000C20008951F93CF93DF93282F30E0F90194
:10062000E056FE4F8491F901EF57FE4FD491F90146
:10063000EE59FE4FC491CC23C9F0162F81110E94B0
:10064000CD02EC2FF0E0EE0FFF1FE852FF4FA59117
:10065000B4918FB7F894111105C09C91ED2FE095DE
:10066000E92302C0EC91ED2BEC938FBFDF91CF918A
:100670001F910895CF93DF9390E0FC01EF57FE4F59
:100680002491FC01EE59FE4F8491882361F190E0A2
:10069000880F991FFC01E653FF4FC591D491FC01CF
:1006A000E852FF4FA591B491611109C09FB7F8942A
:1006B0008881209582238883EC912E230BC06230A1
:1006C00061F49FB7F8943881822F809583238883C3
:1006D000EC912E2B2C939FBF06C08FB7F894E88126
:1006E0002E2B28838FBFDF91CF9108953FB7F894C9
:1006F00080912B0190912C01A0912D01B0912E01A0
:1007000026B5A89B05C02F3F19F00196A11DB11D6C
:100710003FBFBA2FA92F982F8827820F911DA11DA7
:10072000B11DBC01CD0143E0660F771F881F991FE3
:100730004A95D1F708958F929F92AF92BF92CF9230
:10074000DF92EF92FF926B017C010E9476034B01D6
:100750005C01C114D104E104F104F1F00E947603BC
:10076000DC01CB0188199909AA09BB09883E93408D
:10077000A105B10570F321E0C21AD108E108F10822
:1007800088EE880E83E0981EA11CB11CC114D10410
:10079000E104F10419F7DDCFFF90EF90DF90CF90E7
:1007A000BF90AF909F908F9008958F929F92AF923D
:1007B000BF92CF92DF92EF92FF920F931F93CF934E
:1007C000DF935C016B017A0180910B01882309F4AE
:1007D00059C080919401882309F454C08091350157
:1007E00080FF05C08091E00082608093E000E70117
:1007F00010E00AEF83E0882E9AE3992E2097D1F13A
:100800000E943401811109C00150E1F161E070E002
:1008100080E090E00E949B03F1CF282F30E0C217C8
:10082000D3070CF48C2F4FB7F8948092E900909185
:10083000E80095FF1DC0282F30E0C21BD30BF60146
:10084000982F915020F081918093F100FACFC20E41
:10085000D31E112319F09092E80009C08091E8009E
:1008600085FD06C09092E80011E0209709F010E0A5
:100870004FBFC4CF1111C4CF84E6809333011E143F
:100880001F0444F081E090E0F5019383828380E0CF
:1008900090E001C0C701DF91CF911F910F91FF90B0
:1008A000EF90DF90CF90BF90AF909F908F90089582
:1008B0000E947A081F920F920FB60F9211248F9305
:1008C0009F938091E1009091E100937F9093E100EC
:1008D00083FF0FC01092E90091E09093EB0010921B
:1008E000EC0092E39093ED001092940198E09093C5
:1008F000F00082FF1CC093E09093E9009091F20019
:10090000992319F09AE39093E80090913301992389
:1009100029F090913301915090933301909193017C
:10092000992329F09091930191509093930184FF22
:1009300010C08091E2008E7E81608093E200809101
:10094000E1008F7E8093E100809135018E7E806191
:1009500011C080FF11C08091E2008E7E8061809383
:10096000E2008091E1008E7E8093E100809135016C
:100970008E7E8160809335019F918F910F900FBE85
:100980000F901F9018951F920F920FB60F9211247F
:10099000CF92DF92EF92FF920F931F932F933F938B
:1009A0004F935F936F937F938F939F93AF93BF9377
:1009B000EF93FF93CF93DF93CDB7DEB76C97DEBF96
:1009C000CDBF1092E9008091E80083FFFFC1FE01D6
:1009D0007596DE2ECF2E88E08E0F8E1729F090911F
:1009E000F10090833196F9CF84E68093930182EFF2
:1009F0008093E8008D8987FF05C09091E80090FF03
:100A0000FCCF03C09EEF9093E800982F907609F0FA
:100A1000C5C09E892F89188D91110CC0803829F48A
:100A2000809136018093F10002C01092F100109283
:100A3000F1004FC1422F50E0512B913051F4811100
:100A400048C14130510509F044C1809136018D7F84
:100A50000BC0933061F481113CC14130510509F064
:100A600038C18091360182608093360132C1953061
:100A700041F48091E80080FFFCCF20682093E300E0
:100A800028C1963009F05EC0EB8CFC8C1092E90016
:100A90001092320110923101123091F51092300112
:100AA00010922F010E94EB0199E0BE016F5F7F4F12
:100AB000DB01E92F1D92EA95E9F799831A8391E00A
:100AC0009E8390EA98879AEF99872091310130911F
:100AD0003201275F3F4F3C832B838D831092E900C7
:100AE0001092320110923101F0923001E0922F0108
:100AF00049E050E080E00E94C4010E94EB01E9C09F
:100B0000F0923001E0922F010E944501DC01129623
:100B1000ED90FC901397E114F10409F4C7C0D701DC
:100B2000ED91FC910480F581E02D6D2D7C2DC701A8
:100B30000995009719F00CF0CCC0CFC0F701E08404
:100B4000F184E9CF973009F4C8C0983021F481E0EE
:100B50008093F100BEC0993009F0BBC0837009F0EA
:100B6000BCC0EFE1F1E081E021E036E39081992320
:100B700061F08093E9002093EB0091919093EC0059
:100B80003093ED008F5F873089F78EE78093EA001E
:100B90001092EA008F89809394019BC08B8D9C8D6D
:100BA0001092E900109232011092310190933001BD
:100BB00080932F01898D81115FC08E899D89913A23
:100BC00059F4813209F089C047E050E064E071E0F7
:100BD00080E00E94C4017DC0913209F07EC0833262
:100BE00089F4888D90E0982F88272F89822BA0E0A8
:100BF000B0E08093000190930101A0930201B093B3
:100C0000030167C08032B1F48091E80082FFFCCF1D
:100C1000E4E0F1E087E08E0F8E1729F09091F1006B
:100C200090833196F9CF84E6809393018BEF809384
:100C3000E80006C0823209F04CC08F8980930B0116
:100C400080913401882319F0EEEFFAE002C0E0E071
:100C5000F8E08091040190910501A0910601B09106
:100C60000701803B9440A105B10509F07AC080914D
:100C70000B0180FF92C075C00E944501DC011296F5
:100C80000D911C9113970115110539F1D801ED91C2
:100C9000FC910190F081E02D6D2D7C2DC80109950E
:100CA000811117C0F80100851185EDCF113009F4CD
:100CB0004EC0133091F48F89882309F445C08230E7
:100CC00081F440E86CE087E491E00E94870188238A
:100CD00021F08EEF8093E80079C081E28093EB00F1
:100CE00075C0813029F440E868E08EE391E0EDCFF3
:100CF000833099F70E944501DC011296ED90FC903B
:100D000013978E010F5F1F4F6801E114F10479F012
:100D1000D701ED91FC910680F781E02DB801C70164
:100D20000995080F111DF701E084F184EECFD80179
:100D30001C92F60101900020E9F73197BF016C1970
:100D40007D0940E0C601C1CF68E271E002C06CE2FB
:100D500071E06115710509F2FB01449150E080E8F2
:100D600038CF0FB6F894A895809160008861809381
:100D70006000109260000FBEA895EE3F2AE0F207D7
:100D800039F08091FE0A9091FF0A91838083A1CF70
:100D90001092FF0A1092FE0A9CCFEE3F8AE0F807FD
:100DA00031F0808191819093FF0A8093FE0A87E75A
:100DB00097E7918380839BE088E10FB6F894A8952C
:100DC000809360000FBE9093600083CF6C960FB647
:100DD000F894DEBF0FBECDBFDF91CF91FF91EF91B1
:100DE000BF91AF919F918F917F916F915F914F9143
:100DF0003F912F911F910F91FF90EF90DF90CF9037
:100E00000F900FBE0F901F9018951F920F920FB664
:100E10000F9211242F933F938F939F93AF93BF9380
:100E20008091270190912801A0912901B0912A0178
:100E30003091260126E0230F2D3720F40296A11DC4
:100E4000B11D05C029E8230F0396A11DB11D2093F4
:100E500026018093270190932801A0932901B09344
:100E60002A0180912B0190912C01A0912D01B0912C
:100E70002E010196A11DB11D80932B0190932C0191
:100E8000A0932D01B0932E01BF91AF919F918F91AF
:100E90003F912F910F900FBE0F901F90189578944F
:100EA00084B5826084BD84B5816084BD85B582606F
:100EB00085BD85B5816085BD80916E008160809320
:100EC0006E00109281008091810082608093810089
:100ED0008091810081608093810080918000816099
:100EE0008093800080919100826080939100809136
:100EF0009100816080939100809190008160809347
:100F000090008091C10084608093C1008091C100F5
:100F100082608093C1008091C10081608093C10094
:100F20008091C30081608093C3008091C000826083
:100F30008093C0008091C20081608093C200809144
:100F40007A00846080937A0080917A008260809336
:100F50007A0080917A008E7F80937A0080917A0067
:100F6000806880937A00109294011092360110925A
:100F700035018091D70081608093D70080EA80930B
:100F8000D80089B58F7E89BD89B5826089BD09B4D5
:100F900000FEFDCF61E070E080E090E00E949B03E6
:100FA0008091D8008F7C80618093D8008091E00090
:100FB000807F8093E0008091E1008E7E8093E1004D
:100FC0008DE08093E200EEEFFFE7859194918B3FF7
:100FD0009C4D19F481E08093340161E085E00E942A
:100FE0003A0361E086E00E943A0360E083E00E94F9
:100FF0003A038FEF9FEF9093440180934301C3EA3C
:10100000D1E004E811E035E6E32E31E0F32E40E0D4
:10101000C42E40E0D42EFE018491F801A490F70183
:10102000B490BB2079F081110E94CD028B2D90E00D
:10103000880F991F8C5A9E4FFC01A591B4918C91F9
:10104000A82261F468E873E180E090E00E949B03CD
:10105000C114D10401F30E940000DDCF87E391E0C9
:101060000E94AF02892B71F387E391E00E946D0229
:10107000C0974C01A12CB12CA814B9041CF761E055
:1010800085E00E940A0361E086E00E940A0364EFA3
:1010900071E080E090E00E949B0360E085E00E94A8
:1010A0000A0360E086E00E940A0364EF71E080E0DA
:1010B00090E00E949B03FFEFAF1ABF0ADDCFE7E38A
:1010C000F1E01382128288EE93E0A0E0B0E0848326
:1010D0009583A683B78380E191E0918380838FEF2E
:1010E0009FEF958784870895EE0FFF1F0590F49179
:1010F000E02D099481E090E0F8940C947F08F89436
:02110000FFCF1F
:10110200FFFFFFFF00E10000000000000000000000
:101112004802D50369025E02AF026D028B0200C172
:06112200808100000000C6
:1070000055C000006EC000006CC000006AC00000E7
:1070100068C0000066C0000064C0000062C00000DC
:1070200060C000005EC00000DAC400005AC000006A
:1070300058C0000056C0000054C0000052C00000FC
:1070400050C0000076C000004CC000004AC00000E4
:1070500048C0000046C0000044C0000042C000001C
:1070600040C000003EC000003CC000003AC000002C
:1070700038C0000036C0000034C0000032C000003C
:1070800030C000002EC000002CC000002AC000004C
:1070900028C0000026C0000024C0000022C000005C
:1070A00020C000001EC000001CC0000011241FBE34
:1070B000CFEFDAE0DEBFCDBF11E0A0E0B1E0EEEF50
:1070C000FEE702C005900D92AA3CB107D9F711E086
:1070D000AAECB1E001C01D92A03EB107E1F781D357
:1070E0000CC78ECFF89410926F001092810010920E
:1070F00085001092840081E085BF15BE47980C94EE
:10710000000008952091D4013091D5012F5F3F4FA9
:107110003093D5012093D401932F37FF03C08EEF16
:10712000831B982F990F921710F447980895479A48
:1071300008951F920F920FB60F9211242F938F93E1
:107140009F93EF93FF93109285001092840080919B
:10715000CA019091CB01009729F001979093CB0140
:107160008093CA018091CC019091CD01009729F0C4
:1071700001979093CD018093CC01E0E0F0E0859100
:1071800094918F5F9F4F49F08091CE019091CF01F4
:1071900001969093CF018093CE01FF91EF919F9143
:1071A0008F912F910F900FBE0F901F90189584E034
:1071B0008093E9000DC08091E8008B778093E80010
:1071C00003C08EB3882351F08091E80082FFF9CF8D
:1071D0008091E80085FFEFCF8091F1000895982F0E
:1071E00083E08093E9008091E80085FD0DC08091E7
:1071F000E8008E778093E80003C08EB3882361F0A7
:107200008091E80080FFF9CF9093F10084E690E050
:107210009093CB018093CA0108954F925F926F9231
:107220007F928F929F92AF92BF92CF92DF92EF9216
:10723000FF920F931F93CF93DF9384E08093E90035
:107240008091E80082FF56C284E690E09093CD01E1
:107250008093CC01ACDF182F853481F48CE195E26A
:107260009093CF018093CE0107B600FCFDCFF99932
:10727000FECF81E180935700E89503C0843519F46F
:1072800096DF8DE00DC28C34E1F38035D1F3843785
:1072900021F484E4A4DF80E003C2813611F489E59F
:1072A000FFC18134B1F483DF182F81DF90E0880FB4
:1072B000991FAA2797FDA095BA2F312F330F20E0F1
:1072C000442737FD4095542F822B932BA42BB52BAD
:1072D000B8C1803711F483E5E3C1833549F4C0E0D8
:1072E000D1E089917CDF21E0C730D207D1F7D9C145
:1072F000863521F481E373DF80E3D2C1833731F433
:1073000087E86DDF85E96BDF8EE1CAC18536B9F4A8
:10731000E0E0F0E093E085E090935700E89507B651
:1073200000FCFDCF80935700E89507B600FCFDCF29
:10733000E058FF4FA0E7E030FA0771F7A2CF82379D
:1073400039F4E1E0F0E089E0809357008491A8C12E
:10735000863439F4E0E0F0E089E0809357008491CE
:107360009FC18E3439F4E3E0F0E089E08093570068
:10737000849196C1813539F4E2E0F0E089E08093B0
:10738000570084918DC1823631F489E528DF80E091
:1073900026DF80E885C1823419F0873609F0E5C020
:1073A0001092CF011092CE0102DF082F00DFF82EDD
:1073B000FEDE682E8554823008F071C1902F80E087
:1073C000CF2DD0E0C82BD92B10926F00173609F0C3
:1073D0004BC081E180935700E895DD24CC24C39411
:1073E0003FC0E090D001F090D1010091D201109106
:1073F000D301B6E46B16D9F4ED2DF0E0EE29FF29A8
:10740000E4918E2FECDEDD2081F082E090E0A0E0C0
:10741000B0E0E80EF91E0A1F1B1FE092D001F092A7
:10742000D1010093D2011093D301DC2418C0D801FC
:10743000C701B695A7959795879549D5D0DE82E087
:1074400090E0A0E0B0E0E80EF91E0A1F1B1FE092DA
:10745000D001F092D1010093D2011093D301219772
:10746000209709F0BECF7DC08090D0019090D101CF
:10747000A090D201B090D30196E4691609F05DC0E6
:1074800083E0F40180935700E89507B600FCFDCF38
:1074900054C0F6E46F1661F5772031F1E090D00129
:1074A000F090D1010091D2011091D30180DED82E4D
:1074B000CC24852D90E08C299D29F7010C01409268
:1074C0005700E895112482E090E0A0E0B0E0E80EDB
:1074D000F91E0A1F1B1FE092D001F092D101009308
:1074E000D2011093D30102C062DE582E742423C04F
:1074F000E090D001F090D1010091D2011091D30120
:1075000016950795F794E79452DE682FC701E7D4E4
:107510008091D0019091D101A091D201B091D3017D
:107520000296A11DB11D8093D0019093D101A0932B
:10753000D201B093D301219704C055247724442469
:107540004394209709F0A5CF96E4691641F485E0AD
:10755000F40180935700E89507B600FCFDCF8DE05D
:107560003EDE82E080936F009CC0833471F4009112
:10757000D0011091D1011BDE90E021E0F8010C0157
:1075800020935700E89511247CCE833619F5E090BE
:10759000D001F090D1010091D2011091D30107DE0A
:1075A000F701E16090E021E00C0120935700E8959D
:1075B000112482E090E0A0E0B0E0E80EF91E0A1F7E
:1075C0001B1FE092D001F092D1010093D2011093E1
:1075D000D30157CE8D3661F4E091D001F091D10105
:1075E00085E080935700E89507B600FCFDCF49CEB3
:1075F000823551F4E091D001F091D10105911491BF
:10760000812FEDDD802F4CC0843421F5E090D00136
:10761000F090D1010091D2011091D30116950795F8
:10762000F794E794C4DD682FC70159D48091D00145
:107630009091D101A091D201B091D3010296A11DE8
:10764000B11D8093D0019093D101A093D201B0934A
:10765000D30117CE843609F5E090D001F090D10126
:107660000091D2011091D301D801C701B695A79519
:10767000979587952CD4B3DD82E090E0A0E0B0E050
:10768000E80EF91E0A1F1B1FE092D001F092D101F3
:107690000093D2011093D30104C08B3111F08FE31A
:1076A0009EDD83E08093E9009091E8008091E800FE
:1076B0008E778093E80095FF04C010C08EB38823B6
:1076C000C9F08091E80080FFF9CF8091E8008E77C3
:1076D0008093E80003C08EB3882361F08091E800B6
:1076E00080FFF9CF84E08093E9008091E8008B77F8
:1076F0008093E800DF91CF911F910F91FF90EF9061
:10770000DF90CF90BF90AF909F908F907F906F90C1
:107710005F904F9008959091D801892F8F77813293
:1077200049F58091D9018032A1F0813219F5913A61
:1077300009F58091E800877F8093E8008DE091E073
:1077400067E070E0FBD18091E8008B778093E800E0
:107750000895913279F48091E800877F8093E80062
:107760008DE091E067E070E04DD28091E8008E7787
:107770008093E800089582E061EC42E0A7D083E0C6
:1077800061E842E1A3D084E060E842E19FC084B7B1
:10779000877F84BF88E10FB6F894809360001092D1
:1077A00060000FBE20E880E090E00FB6F8942093D0
:1077B0006100809361000FBE81E085BF92E095BFBC
:1077C0003F9AE1E6F0E0208310824798109289000A
:1077D0008DE78093880090936F0083E08093810011
:1077E000E6C04091000850910108109201081092E3
:1077F000000824B714BE88E10FB6F89480936000A7
:10780000109260000FBEE0E0F0E0859194918F5FF0
:107810009F4F71F020FD0BC021FD0AC0283041F4BC
:107820008091090190910A014817590709F05ADC23
:10783000AEDF78941092CF011092CE010CC0EDDC37
:1078400034D38091CE019091CF018151974210F0B5
:107850001092140157DC80911401882381F78091E4
:10786000E00081608093E0003DDC80E090E00895DE
:10787000FA01923049F0933061F09130F9F485E1EA
:1078800091E022E130E01EC087E291E02EE330E09B
:1078900019C0882329F485E691E024E030E012C085
:1078A000813029F489E691E022E230E00BC0823099
:1078B00029F487E991E028E130E004C080E090E01D
:1078C00020E030E091838083C90108958093E9002E
:1078D0008091EB0081608093EB001092ED0060934B
:1078E000EC004093ED008091EE00881F8827881FF0
:1078F00008958091D80188238CF403C08EB3882327
:10790000B1F08091E80082FFF9CF8091E8008B7799
:107910008093E80008958EB3882349F08091E800B1
:1079200080FFF9CF8091E8008E778093E80008957A
:10793000EF92FF920F931F9345D04CD008ED10E0CB
:10794000F80180818F778083808180688083808147
:107950008F7D808319BC1EBA1092D60180EEE82E6E
:10796000F12CF70180818B7F8083F8018081816019
:10797000808380E060E042E0A9DFE1EEF0E080811A
:107980008E7F8083E2EEF0E0808181608083808161
:1079900088608083F70180818E7F8083F8018081F9
:1079A000806180831F910F91FF90EF900895E7ED24
:1079B000F0E08081816080838AE482BF81E08093EF
:1079C000D701B6CFE8EDF0E080818E7F8083109202
:1079D000E20008951092DA001092E10008951F92DB
:1079E0000F920FB60F9211242F933F934F935F93F3
:1079F0006F937F938F939F93AF93BF93EF93FF9377
:107A00008091DA0080FF1AC08091D80080FF16C0F4
:107A10008091DA008E7F8093DA008091D90080FF18
:107A20000AC019BC82E089BD09B400FEFDCF81E027
:107A30008EBB3AD203C019BC1EBA36D28091E10087
:107A400080FF17C08091E20080FF13C08091E200A8
:107A50008E7F8093E2008091E20080618093E2005B
:107A60008091D80080628093D80019BC85E08EBBDD
:107A70001BD28091E10084FF2BC08091E20084FF43
:107A800027C019BC82E089BD09B400FEFDCF8091FA
:107A9000D8008F7D8093D8008091E1008F7E809305
:107AA000E1008091E2008F7E8093E2008091E2000D
:107AB00081608093E2008091D601882331F4809127
:107AC000E30087FD02C081E001C084E08EBBECD101
:107AD0008091E10083FF21C08091E20083FF1DC0FF
:107AE0008091E100877F8093E10082E08EBB10925D
:107AF000D6018091E1008E7F8093E1008091E200C9
:107B00008E7F8093E2008091E20080618093E200AA
:107B100080E060E042E0DADEC7D1FF91EF91BF91F3
:107B2000AF919F918F917F916F915F914F913F9115
:107B30002F910F900FBE0F901F9018959C014091B0
:107B4000DE015091DF014617570718F4F90190E064
:107B500044C06115710511F0AB01F8CF8091E800C8
:107B60008E778093E80040E050E0F0CF8EB388231A
:107B700009F444C0853009F443C08091E80083FFD4
:107B800002C081E008958091E80082FD31C08091BB
:107B9000E80080FF22C08091F3009091F200782FDE
:107BA00060E0292F30E0262B372B07C0819180938E
:107BB000F100415050402F5F3F4F4115510519F0E2
:107BC0002830310598F390E02830310509F491E030
:107BD0008091E8008E778093E8004115510531F6D9
:107BE000992321F605C08EB3882341F0853041F0FA
:107BF0008091E80082FFF7CF80E0089582E0089549
:107C000083E008959C016115710529F48091E800D5
:107C10008B778093E800F90126C08EB3882391F119
:107C2000853091F18091E80083FF02C081E00895E2
:107C30008091E80082FFF1CF06C08091F10081932E
:107C40006150704059F02091F3008091F200322F82
:107C500020E090E0822B932B892B79F78091E8002C
:107C60008B778093E80061157105B9F605C08EB376
:107C7000882341F0853041F08091E80080FFF7CF04
:107C800080E0089582E0089583E008950F931F93A4
:107C9000DF93CF9300D0CDB7DEB7E8EDF1E0809170
:107CA000F100819381E0E03EF807C9F734DD80916F
:107CB000E80083FFE4C08091D8019091D90195300C
:107CC00009F46DC0963040F4913081F1913070F03C
:107CD000933009F0D4C02AC0983009F4A3C0993079
:107CE00009F4B2C0963009F0CAC07CC0803809F4EB
:107CF000C6C0823809F0C3C08091DC0187708093D0
:107D0000E9008091EB001092E9002091E800277FC4
:107D10002093E80090E025E0969587952A95E1F775
:107D200081708093F1001092F10087C0882319F0D0
:107D3000823009F0A4C08F71823009F0A0C0809118
:107D4000DA01882331F52091DC01277009F497C00E
:107D50002093E9008091EB0080FF1BC0933021F459
:107D60008091EB00806213C08091EB008061809372
:107D7000EB0081E090E002C0880F991F2A95E2F79E
:107D80008093EA001092EA008091EB008860809373
:107D9000EB001092E9008091E800877F51C08823B2
:107DA00009F06DC01091DA011F770FB7F894809138
:107DB000E800877F8093E8009CDD8091E80080FFE9
:107DC000FCCF8091E3008078812B8093E300806872
:107DD0008093E300112311F482E001C083E08EBBA5
:107DE0000FBF4DC08058823008F049C08091DA0141
:107DF0009091DB016091DC01AE014F5F5F4F38DD98
:107E0000BC01009709F43BC08091E800877F809314
:107E1000E80089819A8192DE8091E8008B778093D7
:107E2000E8002DC0803859F58091E800877F809365
:107E3000E8008091D6018093F1008091E8008E7770
:107E40008093E80056DD1BC08823C9F49091DA01C5
:107E50009230A8F48091E800877F8093E8009093A7
:107E6000D60147DD8091D601882331F48091E3006B
:107E700087FD02C081E001C084E08EBB7CDC809184
:107E8000E80083FF0AC08091EB0080628093EB00E2
:107E90008091E800877F8093E8000F900F90CF914A
:107EA000DF911F910F91089508951F938EB388233A
:107EB00061F01091E9001092E9008091E80083FFE1
:107EC00001C0E4DE17701093E9001F910895F9993D
:107ED000FECF92BD81BDF89A992780B50895262FCF
:107EE000F999FECF1FBA92BD81BD20BD0FB6F8949F
:0E7EF000FA9AF99A0FBE01960895F894FFCF02
:107EFE004341544552494E41007777000800000037
:107F0E00000000080112011001020000089A230C63
:107F1E000001000201000109023E00020100803250
:107F2E0009040000010202010005240010010424CE
:107F3E0002040524060001070582030800FF090458
:107F4E000100020A000000070504021000010705E7
:107F5E00830210000104030904220341006400613E
:107F6E00006600720075006900740020004600650E
:107F7E00006100740068006500720020003300325A
:107F8E0000750034000000180341006400610066B3
:107F9E00007200750069007400200049006E0064D4
:107FAE000075007300740072006900650073002094
:0A7FBE00004C004C004300000000DE
:040000030000700089
:00000001FF
