:100000000C94E1000C9409010C9409010C94090171
:100010000C9409010C9409010C9409010C94090138
:100020000C9409010C9409010C945A040C94C30417
:100030000C9409010C9409010C9409010C94090118
:100040000C9409010C9409010C9409010C94090108
:100050000C9409010C9409010C9409010C940507F6
:100060000C9409010C9409010C9409010C940901E8
:100070000C9409010C9409010C9409010C940901D8
:100080000C9409010C9409010C9409010C940901C8
:100090000C9409010C9409010C9409010C940901B8
:1000A0000C9409010C9409010C940901E502E80281
:1000B000D702DB02E102090309030903EC02F002A3
:1000C000F402FA02FE020903040300000000240007
:1000D00027002A002D003000000000002500280025
:1000E0002B002E003100080B00020202010009045F
:1000F0000000010202000005240010010524010196
:1001000001042402060524060001070581031000EE
:100110004009040100020A00000007050202400035
:1001200000070583024000000403090412010002D5
:10013000EF0201409A230C80000101020301416497
:100140006166727569740046656174686572203312
:1001500032753400000000002300260029002C0026
:100160002F00040404040403040502020202040331
:100170000202020206060606060604040202020441
:100180000404080201104080401020408040800894
:100190000204018040201002011080102040402005
:1001A0000000000200090F0000030401000C000021
:1001B000000000000000000000000000000000003F
:1001C000610811241FBECFEFDAE0DEBFCDBF11E022
:1001D000A0E0B1E0E6E0F1E102C005900D92AA33A3
:1001E000B107D9F721E0AAE3B1E001C01D92A93A15
:1001F000B207E1F710E0C1EED0E004C02197FE01A4
:100200000E947608C03ED107C9F70E944F070C94A0
:1002100081080C940000FC018091A801811103C0A9
:100220008FEF9FEF08959FB7F89482E08093E900E5
:100230002091F20030E01216130614F421E030E0B1
:100240002115310551F084E68093A7018091F100DA
:1002500080838091F200882319F09FBFC90108951F
:100260008BE68093E800F9CF2FB7F89483E0809372
:10027000E9009091E800892F807295FF04C0909169
:10028000F20080E4891B2FBF089580919F018111A6
:100290000DC082E080939B0184E080939C011092CA
:1002A0009E0110929D0181E080939F018BE991E076
:1002B00008954091450150914601209143013091AC
:1002C000440142175307B4F49091E8009570E1F3AC
:1002D0009091E80092FD19C08093F1008091450152
:1002E0009091460101968F739927892B19F48EEF0F
:1002F0008093E8008091450190914601019690938A
:1003000046018093450181E0089580E00895CF92F1
:10031000DF92EF92FF920F931F93CF93DF931F9281
:10032000CDB7DEB7182F062FE42E862F880F8E5FED
:1003300099830E94590183E00E945901F12EC12E38
:100340009981D92E8C2D8F19801798F4F601E7FE2C
:1003500002C0849101C080810E945901182F80E061
:100360000E9459018123FFEFCF1ADF0A8111EACFE2
:1003700001C081E00F90DF91CF911F910F91FF900D
:10038000EF90DF90CF900895DF92EF92FF920F935E
:100390001F93CF93DF93D82E8A017B01E40EF51EC5
:1003A000EB01CE15DF0571F0D7FE03C0FE0184918D
:1003B00001C088810E94590121968111F2CF8FEFEF
:1003C0009FEF01C0C801DF91CF911F910F91FF9066
:1003D000EF90DF9008950F931F93CF93DF931F92B9
:1003E000CDB7DEB782E0898342E450E066EE70E08C
:1003F00080E80E94C4010E944501DC0112960D9123
:100400001C9113970115110569F0D801ED91FC912C
:100410000280F381E02DBE016F5F7F4FC801099517
:1004200097FF07C089810F90DF91CF911F910F91A6
:100430000895F80100851185E5CFCF92DF92EF9204
:10044000FF920F931F93CF93DF936C017A018B017F
:10045000C0E0D0E0CE15DF0589F0D8016D918D01A7
:10046000D601ED91FC910190F081E02DC601099536
:10047000892B11F47E0102C02196ECCFC701DF91D8
:10048000CF911F910F91FF90EF90DF90CF90089543
:10049000CF93DF931F92CDB7DEB76983DC01ED9177
:1004A000FC910280F381E02D41E050E0BE016F5FDE
:1004B0007F4F09950F90DF91CF91089583E080934E
:1004C000E9008091F200882319F08AE38093E80024
:1004D00008950E94340190E00895CF93DF931F9216
:1004E000CDB7DEB7FC018485958597FD05C02FEF5C
:1004F0003FEF358724870BC0CE0101960E940B0188
:10050000019719F4898190E002C08FEF9FEF0F905F
:10051000DF91CF9108950F931F93CF93DF931F9295
:10052000CDB7DEB78C01FC018485958597FF0EC0A1
:10053000CE0101960E940B01019719F4298130E048
:1005400002C02FEF3FEFF80135872487F80184853B
:1005500095850F90DF91CF911F910F910895FC0128
:100560008485958597FD0BC09FB7F89482E08093B2
:10057000E9008091F2009FBF90E0019608959FB737
:10058000F89482E08093E9008091F2009FBF90E0B0
:100590000895089580E090E0089590E0FC0131977F
:1005A000EF30F105B0F5EA5AFF4F0C9476088091D0
:1005B00080008F7703C0809180008F7D80938000C2
:1005C000089580918000877FF9CF84B58F7702C02E
:1005D00084B58F7D84BD0895809190008F7707C08A
:1005E000809190008F7D03C080919000877F8093E1
:1005F000900008958091C0008F7703C08091C00063
:100600008F7D8093C00008958091C200877F809382
:10061000C20008951F93CF93DF93282F30E0F90194
:10062000E056FE4F8491F901EF57FE4FD491F90146
:10063000EE59FE4FC491CC23C9F0162F81110E94B0
:10064000CD02EC2FF0E0EE0FFF1FE852FF4FA59117
:10065000B4918FB7F894111105C09C91ED2FE095DE
:10066000E92302C0EC91ED2BEC938FBFDF91CF918A
:100670001F910895CF93DF9390E0FC01EF57FE4F59
:100680002491FC01EE59FE4F8491882361F190E0A2
:10069000880F991FFC01E653FF4FC591D491FC01CF
:1006A000E852FF4FA591B491611109C09FB7F8942A
:1006B0008881209582238883EC912E230BC06230A1
:1006C00061F49FB7F8943881822F809583238883C3
:1006D000EC912E2B2C939FBF06C08FB7F894E88126
:1006E0002E2B28838FBFDF91CF9108953FB7F894C9
:1006F00080913F0190914001A0914101B091420150
:1007000026B5A89B05C02F3F19F00196A11DB11D6C
:100710003FBFBA2FA92F982F8827820F911DA11DA7
:10072000B11DBC01CD0143E0660F771F881F991FE3
:100730004A95D1F708958F929F92AF92BF92CF9230
:10074000DF92EF92FF926B017C010E9476034B01D6
:100750005C01C114D104E104F104F1F00E947603BC
:10076000DC01CB0188199909AA09BB09883E93408D
:10077000A105B10570F321E0C21AD108E108F10822
:1007800088EE880E83E0981EA11CB11CC114D10410
:10079000E104F10419F7DDCFFF90EF90DF90CF90E7
:1007A000BF90AF909F908F9008958F929F92AF923D
:1007B000BF92CF92DF92EF92FF920F931F93CF934E
:1007C000DF935C016B017A0180910B01882309F4AE
:1007D00059C08091A801882309F454C0809149012F
:1007E00080FF05C08091E00082608093E000E70117
:1007F00010E00AEF83E0882E9AE3992E2097D1F13A
:100800000E943401811109C00150E1F161E070E002
:1008100080E090E00E949B03F1CF282F30E0C217C8
:10082000D3070CF48C2F4FB7F8948092E900909185
:10083000E80095FF1DC0282F30E0C21BD30BF60146
:10084000982F915020F081918093F100FACFC20E41
:10085000D31E112319F09092E80009C08091E8009E
:1008600085FD06C09092E80011E0209709F010E0A5
:100870004FBFC4CF1111C4CF84E6809347011E142B
:100880001F0444F081E090E0F5019383828380E0CF
:1008900090E001C0C701DF91CF911F910F91FF90B0
:1008A000EF90DF90CF90BF90AF909F908F90089582
:1008B0000E947C081F920F920FB60F9211248F9303
:1008C0009F938091E1009091E100937F9093E100EC
:1008D00083FF0FC01092E90091E09093EB0010921B
:1008E000EC0092E39093ED001092A80198E09093B1
:1008F000F00082FF1CC093E09093E9009091F20019
:10090000992319F09AE39093E80090914701992375
:1009100029F0909147019150909347019091A70140
:10092000992329F09091A70191509093A70184FFFA
:1009300010C08091E2008E7E81608093E200809101
:10094000E1008F7E8093E100809149018E7E80617D
:1009500011C080FF11C08091E2008E7E8061809383
:10096000E2008091E1008E7E8093E1008091490158
:100970008E7E8160809349019F918F910F900FBE71
:100980000F901F9018951F920F920FB60F9211247F
:10099000CF92DF92EF92FF920F931F932F933F938B
:1009A0004F935F936F937F938F939F93AF93BF9377
:1009B000EF93FF93CF93DF93CDB7DEB76C97DEBF96
:1009C000CDBF1092E9008091E80083FFFFC1FE01D6
:1009D0007596DE2ECF2E88E08E0F8E1729F090911F
:1009E000F10090833196F9CF84E68093A70182EFDE
:1009F0008093E8008D8987FF05C09091E80090FF03
:100A0000FCCF03C09EEF9093E800982F907609F0FA
:100A1000C5C09E892F89188D91110CC0803829F48A
:100A200080914A018093F10002C01092F10010926F
:100A3000F1004FC1422F50E0512B913051F4811100
:100A400048C14130510509F044C180914A018D7F70
:100A50000BC0933061F481113CC14130510509F064
:100A600038C180914A01826080934A0132C1953039
:100A700041F48091E80080FFFCCF20682093E300E0
:100A800028C1963009F05EC0EB8CFC8C1092E90016
:100A90001092460110924501123091F510924401D6
:100AA000109243010E94EB0199E0BE016F5F7F4FFE
:100AB000DB01E92F1D92EA95E9F799831A8391E00A
:100AC0009E8390EA98879AEF99872091450130910B
:100AD0004601275F3F4F3C832B838D831092E900B3
:100AE0001092460110924501F0924401E0924301B8
:100AF00049E050E080E00E94C4010E94EB01E9C09F
:100B0000F0924401E09243010E944501DC011296FB
:100B1000ED90FC901397E114F10409F4C7C0D701DC
:100B2000ED91FC910480F581E02D6D2D7C2DC701A8
:100B30000995009719F00CF0CCC0CFC0F701E08404
:100B4000F184E9CF973009F4C8C0983021F481E0EE
:100B50008093F100BEC0993009F0BBC0837009F0EA
:100B6000BCC0EFE1F1E081E021E036E39081992320
:100B700061F08093E9002093EB0091919093EC0059
:100B80003093ED008F5F873089F78EE78093EA001E
:100B90001092EA008F898093A8019BC08B8D9C8D59
:100BA0001092E90010924601109245019093440181
:100BB00080934301898D81115FC08E899D89913A0F
:100BC00059F4813209F089C047E050E064E071E0F7
:100BD00080E00E94C4017DC0913209F07EC0833262
:100BE00089F4888D90E0982F88272F89822BA0E0A8
:100BF000B0E08093000190930101A0930201B093B3
:100C0000030167C08032B1F48091E80082FFFCCF1D
:100C1000E4E0F1E087E08E0F8E1729F09091F1006B
:100C200090833196F9CF84E68093A7018BEF809370
:100C3000E80006C0823209F04CC08F8980930B0116
:100C400080914801882319F0EEEFFAE002C0E0E05D
:100C5000F8E08091040190910501A0910601B09106
:100C60000701803B9440A105B10509F07AC080914D
:100C70000B0180FF92C075C00E944501DC011296F5
:100C80000D911C9113970115110539F1D801ED91C2
:100C9000FC910190F081E02D6D2D7C2DC80109950E
:100CA000811117C0F80100851185EDCF113009F4CD
:100CB0004EC0133091F48F89882309F445C08230E7
:100CC00081F440E86CE087E491E00E94870188238A
:100CD00021F08EEF8093E80079C081E28093EB00F1
:100CE00075C0813029F440E868E08EE391E0EDCFF3
:100CF000833099F70E944501DC011296ED90FC903B
:100D000013978E010F5F1F4F6801E114F10479F012
:100D1000D701ED91FC910680F781E02DB801C70164
:100D20000995080F111DF701E084F184EECFD80179
:100D30001C92F60101900020E9F73197BF016C1970
:100D40007D0940E0C601C1CF68E271E002C06CE2FB
:100D500071E06115710509F2FB01449150E080E8F2
:100D600038CF0FB6F894A895809160008861809381
:100D70006000109260000FBEA895EE3F2AE0F207D7
:100D800039F08091FE0A9091FF0A91838083A1CF70
:100D90001092FF0A1092FE0A9CCFEE3F8AE0F807FD
:100DA00031F0808191819093FF0A8093FE0A87E75A
:100DB00097E7918380839BE088E10FB6F894A8952C
:100DC000809360000FBE9093600083CF6C960FB647
:100DD000F894DEBF0FBECDBFDF91CF91FF91EF91B1
:100DE000BF91AF919F918F917F916F915F914F9143
:100DF0003F912F911F910F91FF90EF90DF90CF9037
:100E00000F900FBE0F901F9018951F920F920FB664
:100E10000F9211242F933F938F939F93AF93BF9380
:100E200080913B0190913C01A0913D01B0913E0128
:100E300030913A0126E0230F2D3720F40296A11DB0
:100E4000B11D05C029E8230F0396A11DB11D2093F4
:100E50003A0180933B0190933C01A0933D01B093F4
:100E60003E0180913F0190914001A0914101B091DC
:100E700042010196A11DB11D80933F019093400155
:100E8000A0934101B0934201BF91AF919F918F9187
:100E90003F912F910F900FBE0F901F90189578944F
:100EA00084B5826084BD84B5816084BD85B582606F
:100EB00085BD85B5816085BD80916E008160809320
:100EC0006E00109281008091810082608093810089
:100ED0008091810081608093810080918000816099
:100EE0008093800080919100826080939100809136
:100EF0009100816080939100809190008160809347
:100F000090008091C10084608093C1008091C100F5
:100F100082608093C1008091C10081608093C10094
:100F20008091C30081608093C3008091C000826083
:100F30008093C0008091C20081608093C200809144
:100F40007A00846080937A0080917A008260809336
:100F50007A0080917A008E7F80937A0080917A0067
:100F6000806880937A001092A80110924A01109232
:100F700049018091D70081608093D70080EA8093F7
:100F8000D80089B58F7E89BD89B5826089BD09B4D5
:100F900000FEFDCF61E070E080E090E00E949B03E6
:100FA0008091D8008F7C80618093D8008091E00090
:100FB000807F8093E0008091E1008E7E8093E1004D
:100FC0008DE08093E200EEEFFFE7859194918B3FF7
:100FD0009C4D19F481E08093480161E085E00E9416
:100FE0003A0361E086E00E943A0360E083E00E94F9
:100FF0003A038FEF9FEF9093580180935701C3EA14
:10100000D1E004E811E035E6E32E31E0F32E40E0D4
:10101000C42E40E0D42EFE018491F801A490F70183
:10102000B490BB2079F081110E94CD028B2D90E00D
:10103000880F991F8C5A9E4FFC01A591B4918C91F9
:10104000A82231F4C114D10431F30E940000E3CF8F
:10105000E0914B01F0914C010280F381E02D40E1E1
:1010600050E065E271E08BE491E00995E0914B017D
:10107000F0914C010280F381E02D42E050E066E304
:1010800071E08BE491E0099561E085E00E940A033C
:1010900061E086E00E940A0364EF71E080E090E086
:1010A0000E949B0360E085E00E940A0360E086E006
:1010B0000E940A0364EF71E080E090E00E949B03CD
:1010C000C1CFEBE4F1E01382128288EE93E0A0E05E
:1010D000B0E084839583A683B78380E191E0918318
:1010E00080838FEF9FEF958784870895EE0FFF1F12
:1010F0000590F491E02D099481E090E0F8940C942F
:061100008108F894FFCF06
:10110600FFFFFFFF00E100000000000000000000FC
:101116004802D50369025E02AF026D028B0200C16E
:1011260080810000004D6F74696F6E206465746580
:0A1136006374656421000D0A0000D7
:00000001FF
